{
  "_format": "hh-sol-artifact-1",
  "contractName": "SongOrAlbumNFT",
  "sourceName": "contracts/SongOrAlbumNFT.sol",
  "abi": [
    {
      "inputs": [
        {
          "internalType": "string",
          "name": "uri_",
          "type": "string"
        },
        {
          "internalType": "uint256",
          "name": "_hashtuneShare",
          "type": "uint256"
        },
        {
          "internalType": "uint256",
          "name": "_creatorsRoyaltyReserve",
          "type": "uint256"
        },
        {
          "internalType": "uint256",
          "name": "_auctionTimeLimit",
          "type": "uint256"
        }
      ],
      "stateMutability": "nonpayable",
      "type": "constructor"
    },
    {
      "anonymous": false,
      "inputs": [
        {
          "indexed": true,
          "internalType": "address",
          "name": "account",
          "type": "address"
        },
        {
          "indexed": true,
          "internalType": "address",
          "name": "operator",
          "type": "address"
        },
        {
          "indexed": false,
          "internalType": "bool",
          "name": "approved",
          "type": "bool"
        }
      ],
      "name": "ApprovalForAll",
      "type": "event"
    },
    {
      "anonymous": false,
      "inputs": [
        {
          "indexed": false,
          "internalType": "address",
          "name": "artist",
          "type": "address"
        }
      ],
      "name": "ArtistApprovalRevoked",
      "type": "event"
    },
    {
      "anonymous": false,
      "inputs": [
        {
          "indexed": false,
          "internalType": "address",
          "name": "artist",
          "type": "address"
        }
      ],
      "name": "ArtistApproved",
      "type": "event"
    },
    {
      "anonymous": false,
      "inputs": [
        {
          "indexed": false,
          "internalType": "address[]",
          "name": "artists",
          "type": "address[]"
        }
      ],
      "name": "ArtistBatchApprovalRevoked",
      "type": "event"
    },
    {
      "anonymous": false,
      "inputs": [
        {
          "indexed": false,
          "internalType": "address[]",
          "name": "artists",
          "type": "address[]"
        }
      ],
      "name": "ArtistBatchApproved",
      "type": "event"
    },
    {
      "anonymous": false,
      "inputs": [
        {
          "indexed": false,
          "internalType": "uint256",
          "name": "tokenId",
          "type": "uint256"
        },
        {
          "indexed": false,
          "internalType": "uint256",
          "name": "auctionNum",
          "type": "uint256"
        },
        {
          "indexed": false,
          "internalType": "address",
          "name": "newOwner",
          "type": "address"
        },
        {
          "indexed": false,
          "internalType": "uint256",
          "name": "soldFor",
          "type": "uint256"
        }
      ],
      "name": "EndAuction",
      "type": "event"
    },
    {
      "anonymous": false,
      "inputs": [
        {
          "indexed": false,
          "internalType": "uint256",
          "name": "tokenId",
          "type": "uint256"
        },
        {
          "indexed": false,
          "internalType": "uint256",
          "name": "auctionNum",
          "type": "uint256"
        },
        {
          "indexed": false,
          "internalType": "uint256",
          "name": "reservePrice",
          "type": "uint256"
        }
      ],
      "name": "NewAuction",
      "type": "event"
    },
    {
      "anonymous": false,
      "inputs": [
        {
          "indexed": false,
          "internalType": "address",
          "name": "by",
          "type": "address"
        },
        {
          "indexed": false,
          "internalType": "uint256",
          "name": "tokenId",
          "type": "uint256"
        },
        {
          "indexed": false,
          "internalType": "uint256",
          "name": "amount",
          "type": "uint256"
        }
      ],
      "name": "NewBid",
      "type": "event"
    },
    {
      "anonymous": false,
      "inputs": [
        {
          "indexed": false,
          "internalType": "uint256",
          "name": "tokenId",
          "type": "uint256"
        },
        {
          "indexed": false,
          "internalType": "uint256",
          "name": "salePrice",
          "type": "uint256"
        }
      ],
      "name": "NewSale",
      "type": "event"
    },
    {
      "anonymous": false,
      "inputs": [
        {
          "indexed": false,
          "internalType": "address",
          "name": "setBy",
          "type": "address"
        },
        {
          "indexed": false,
          "internalType": "string",
          "name": "newAddress",
          "type": "string"
        }
      ],
      "name": "NewURI",
      "type": "event"
    },
    {
      "anonymous": false,
      "inputs": [
        {
          "indexed": true,
          "internalType": "address",
          "name": "previousOwner",
          "type": "address"
        },
        {
          "indexed": true,
          "internalType": "address",
          "name": "newOwner",
          "type": "address"
        }
      ],
      "name": "OwnershipTransferred",
      "type": "event"
    },
    {
      "anonymous": false,
      "inputs": [
        {
          "indexed": false,
          "internalType": "address",
          "name": "to",
          "type": "address"
        },
        {
          "indexed": false,
          "internalType": "uint256",
          "name": "amount",
          "type": "uint256"
        }
      ],
      "name": "PayoutOccurred",
      "type": "event"
    },
    {
      "anonymous": false,
      "inputs": [
        {
          "indexed": true,
          "internalType": "bytes32",
          "name": "role",
          "type": "bytes32"
        },
        {
          "indexed": true,
          "internalType": "bytes32",
          "name": "previousAdminRole",
          "type": "bytes32"
        },
        {
          "indexed": true,
          "internalType": "bytes32",
          "name": "newAdminRole",
          "type": "bytes32"
        }
      ],
      "name": "RoleAdminChanged",
      "type": "event"
    },
    {
      "anonymous": false,
      "inputs": [
        {
          "indexed": true,
          "internalType": "bytes32",
          "name": "role",
          "type": "bytes32"
        },
        {
          "indexed": true,
          "internalType": "address",
          "name": "account",
          "type": "address"
        },
        {
          "indexed": true,
          "internalType": "address",
          "name": "sender",
          "type": "address"
        }
      ],
      "name": "RoleGranted",
      "type": "event"
    },
    {
      "anonymous": false,
      "inputs": [
        {
          "indexed": true,
          "internalType": "bytes32",
          "name": "role",
          "type": "bytes32"
        },
        {
          "indexed": true,
          "internalType": "address",
          "name": "account",
          "type": "address"
        },
        {
          "indexed": true,
          "internalType": "address",
          "name": "sender",
          "type": "address"
        }
      ],
      "name": "RoleRevoked",
      "type": "event"
    },
    {
      "anonymous": false,
      "inputs": [
        {
          "indexed": false,
          "internalType": "address",
          "name": "by",
          "type": "address"
        },
        {
          "indexed": false,
          "internalType": "uint256",
          "name": "tokenId",
          "type": "uint256"
        },
        {
          "indexed": false,
          "internalType": "address payable[]",
          "name": "creators",
          "type": "address[]"
        },
        {
          "indexed": false,
          "internalType": "uint256[]",
          "name": "creatorsRoyalty",
          "type": "uint256[]"
        },
        {
          "indexed": false,
          "internalType": "enum DataModel.ArtStatus",
          "name": "status",
          "type": "uint8"
        },
        {
          "indexed": false,
          "internalType": "bytes32",
          "name": "digest",
          "type": "bytes32"
        },
        {
          "indexed": false,
          "internalType": "uint8",
          "name": "hashFunction",
          "type": "uint8"
        },
        {
          "indexed": false,
          "internalType": "uint8",
          "name": "size",
          "type": "uint8"
        }
      ],
      "name": "TokenCreated",
      "type": "event"
    },
    {
      "anonymous": false,
      "inputs": [
        {
          "indexed": false,
          "internalType": "address",
          "name": "by",
          "type": "address"
        },
        {
          "indexed": false,
          "internalType": "uint256",
          "name": "tokenId",
          "type": "uint256"
        }
      ],
      "name": "TokenPurchased",
      "type": "event"
    },
    {
      "anonymous": false,
      "inputs": [
        {
          "indexed": true,
          "internalType": "address",
          "name": "operator",
          "type": "address"
        },
        {
          "indexed": true,
          "internalType": "address",
          "name": "from",
          "type": "address"
        },
        {
          "indexed": true,
          "internalType": "address",
          "name": "to",
          "type": "address"
        },
        {
          "indexed": false,
          "internalType": "uint256[]",
          "name": "ids",
          "type": "uint256[]"
        },
        {
          "indexed": false,
          "internalType": "uint256[]",
          "name": "values",
          "type": "uint256[]"
        }
      ],
      "name": "TransferBatch",
      "type": "event"
    },
    {
      "anonymous": false,
      "inputs": [
        {
          "indexed": true,
          "internalType": "address",
          "name": "operator",
          "type": "address"
        },
        {
          "indexed": true,
          "internalType": "address",
          "name": "from",
          "type": "address"
        },
        {
          "indexed": true,
          "internalType": "address",
          "name": "to",
          "type": "address"
        },
        {
          "indexed": false,
          "internalType": "uint256",
          "name": "id",
          "type": "uint256"
        },
        {
          "indexed": false,
          "internalType": "uint256",
          "name": "value",
          "type": "uint256"
        }
      ],
      "name": "TransferSingle",
      "type": "event"
    },
    {
      "anonymous": false,
      "inputs": [
        {
          "indexed": false,
          "internalType": "string",
          "name": "value",
          "type": "string"
        },
        {
          "indexed": true,
          "internalType": "uint256",
          "name": "id",
          "type": "uint256"
        }
      ],
      "name": "URI",
      "type": "event"
    },
    {
      "anonymous": false,
      "inputs": [
        {
          "indexed": false,
          "internalType": "address",
          "name": "receiver",
          "type": "address"
        },
        {
          "indexed": false,
          "internalType": "uint256",
          "name": "withdrawnAmount",
          "type": "uint256"
        }
      ],
      "name": "WithdrawMoney",
      "type": "event"
    },
    {
      "inputs": [],
      "name": "DEFAULT_ADMIN_ROLE",
      "outputs": [
        {
          "internalType": "bytes32",
          "name": "",
          "type": "bytes32"
        }
      ],
      "stateMutability": "view",
      "type": "function"
    },
    {
      "inputs": [
        {
          "internalType": "address",
          "name": "artist",
          "type": "address"
        }
      ],
      "name": "approveArtist",
      "outputs": [],
      "stateMutability": "nonpayable",
      "type": "function"
    },
    {
      "inputs": [
        {
          "internalType": "address[]",
          "name": "artists",
          "type": "address[]"
        }
      ],
      "name": "approveArtistBatch",
      "outputs": [],
      "stateMutability": "nonpayable",
      "type": "function"
    },
    {
      "inputs": [
        {
          "internalType": "address",
          "name": "",
          "type": "address"
        }
      ],
      "name": "approvedArtists",
      "outputs": [
        {
          "internalType": "bool",
          "name": "",
          "type": "bool"
        }
      ],
      "stateMutability": "view",
      "type": "function"
    },
    {
      "inputs": [
        {
          "internalType": "uint256",
          "name": "",
          "type": "uint256"
        }
      ],
      "name": "arts",
      "outputs": [
        {
          "internalType": "enum DataModel.ArtStatus",
          "name": "status",
          "type": "uint8"
        },
        {
          "internalType": "address payable",
          "name": "currentOwner",
          "type": "address"
        },
        {
          "internalType": "uint256",
          "name": "salePrice",
          "type": "uint256"
        },
        {
          "components": [
            {
              "internalType": "bytes32",
              "name": "digest",
              "type": "bytes32"
            },
            {
              "internalType": "uint8",
              "name": "hashFunction",
              "type": "uint8"
            },
            {
              "internalType": "uint8",
              "name": "size",
              "type": "uint8"
            }
          ],
          "internalType": "struct DataModel.MultiHash",
          "name": "metaData",
          "type": "tuple"
        }
      ],
      "stateMutability": "view",
      "type": "function"
    },
    {
      "inputs": [
        {
          "internalType": "address",
          "name": "account",
          "type": "address"
        },
        {
          "internalType": "uint256",
          "name": "id",
          "type": "uint256"
        }
      ],
      "name": "balanceOf",
      "outputs": [
        {
          "internalType": "uint256",
          "name": "",
          "type": "uint256"
        }
      ],
      "stateMutability": "view",
      "type": "function"
    },
    {
      "inputs": [
        {
          "internalType": "address[]",
          "name": "accounts",
          "type": "address[]"
        },
        {
          "internalType": "uint256[]",
          "name": "ids",
          "type": "uint256[]"
        }
      ],
      "name": "balanceOfBatch",
      "outputs": [
        {
          "internalType": "uint256[]",
          "name": "",
          "type": "uint256[]"
        }
      ],
      "stateMutability": "view",
      "type": "function"
    },
    {
      "inputs": [
        {
          "internalType": "address",
          "name": "",
          "type": "address"
        },
        {
          "internalType": "uint256",
          "name": "",
          "type": "uint256"
        },
        {
          "internalType": "uint256",
          "name": "",
          "type": "uint256"
        }
      ],
      "name": "bidMoneyPool",
      "outputs": [
        {
          "internalType": "uint256",
          "name": "",
          "type": "uint256"
        }
      ],
      "stateMutability": "view",
      "type": "function"
    },
    {
      "inputs": [
        {
          "internalType": "uint256",
          "name": "",
          "type": "uint256"
        },
        {
          "internalType": "uint256",
          "name": "",
          "type": "uint256"
        }
      ],
      "name": "bids",
      "outputs": [
        {
          "internalType": "uint256",
          "name": "currentHigh",
          "type": "uint256"
        },
        {
          "internalType": "address payable",
          "name": "currentHighBider",
          "type": "address"
        },
        {
          "internalType": "uint256",
          "name": "endTime",
          "type": "uint256"
        },
        {
          "internalType": "uint256",
          "name": "reservePrice",
          "type": "uint256"
        }
      ],
      "stateMutability": "view",
      "type": "function"
    },
    {
      "inputs": [
        {
          "internalType": "uint256",
          "name": "tokenId",
          "type": "uint256"
        }
      ],
      "name": "buy",
      "outputs": [],
      "stateMutability": "payable",
      "type": "function"
    },
    {
      "inputs": [
        {
          "internalType": "address payable[]",
          "name": "creators",
          "type": "address[]"
        },
        {
          "internalType": "uint256[]",
          "name": "creatorsRoyalty",
          "type": "uint256[]"
        },
        {
          "internalType": "enum DataModel.ArtStatus",
          "name": "status",
          "type": "uint8"
        },
        {
          "internalType": "bytes",
          "name": "data",
          "type": "bytes"
        },
        {
          "internalType": "uint256",
          "name": "salePrice",
          "type": "uint256"
        },
        {
          "internalType": "uint256",
          "name": "reservePrice",
          "type": "uint256"
        },
        {
          "internalType": "bytes32",
          "name": "digest",
          "type": "bytes32"
        },
        {
          "internalType": "uint8",
          "name": "hashFunction",
          "type": "uint8"
        },
        {
          "internalType": "uint8",
          "name": "size",
          "type": "uint8"
        }
      ],
      "name": "create",
      "outputs": [],
      "stateMutability": "nonpayable",
      "type": "function"
    },
    {
      "inputs": [
        {
          "internalType": "uint256",
          "name": "tokenId",
          "type": "uint256"
        }
      ],
      "name": "endAuction",
      "outputs": [],
      "stateMutability": "nonpayable",
      "type": "function"
    },
    {
      "inputs": [
        {
          "internalType": "bytes32",
          "name": "role",
          "type": "bytes32"
        }
      ],
      "name": "getRoleAdmin",
      "outputs": [
        {
          "internalType": "bytes32",
          "name": "",
          "type": "bytes32"
        }
      ],
      "stateMutability": "view",
      "type": "function"
    },
    {
      "inputs": [
        {
          "internalType": "bytes32",
          "name": "role",
          "type": "bytes32"
        },
        {
          "internalType": "address",
          "name": "account",
          "type": "address"
        }
      ],
      "name": "grantRole",
      "outputs": [],
      "stateMutability": "nonpayable",
      "type": "function"
    },
    {
      "inputs": [
        {
          "internalType": "bytes32",
          "name": "role",
          "type": "bytes32"
        },
        {
          "internalType": "address",
          "name": "account",
          "type": "address"
        }
      ],
      "name": "hasRole",
      "outputs": [
        {
          "internalType": "bool",
          "name": "",
          "type": "bool"
        }
      ],
      "stateMutability": "view",
      "type": "function"
    },
    {
      "inputs": [
        {
          "internalType": "address",
          "name": "account",
          "type": "address"
        },
        {
          "internalType": "address",
          "name": "operator",
          "type": "address"
        }
      ],
      "name": "isApprovedForAll",
      "outputs": [
        {
          "internalType": "bool",
          "name": "",
          "type": "bool"
        }
      ],
      "stateMutability": "view",
      "type": "function"
    },
    {
      "inputs": [],
      "name": "owner",
      "outputs": [
        {
          "internalType": "address",
          "name": "",
          "type": "address"
        }
      ],
      "stateMutability": "view",
      "type": "function"
    },
    {
      "inputs": [
        {
          "internalType": "uint256",
          "name": "tokenId",
          "type": "uint256"
        }
      ],
      "name": "placeBid",
      "outputs": [],
      "stateMutability": "payable",
      "type": "function"
    },
    {
      "inputs": [],
      "name": "renounceOwnership",
      "outputs": [],
      "stateMutability": "nonpayable",
      "type": "function"
    },
    {
      "inputs": [
        {
          "internalType": "bytes32",
          "name": "role",
          "type": "bytes32"
        },
        {
          "internalType": "address",
          "name": "account",
          "type": "address"
        }
      ],
      "name": "renounceRole",
      "outputs": [],
      "stateMutability": "nonpayable",
      "type": "function"
    },
    {
      "inputs": [
        {
          "internalType": "address",
          "name": "artist",
          "type": "address"
        }
      ],
      "name": "revokeArtistApproval",
      "outputs": [],
      "stateMutability": "nonpayable",
      "type": "function"
    },
    {
      "inputs": [
        {
          "internalType": "address[]",
          "name": "artists",
          "type": "address[]"
        }
      ],
      "name": "revokeArtistBatchApproval",
      "outputs": [],
      "stateMutability": "nonpayable",
      "type": "function"
    },
    {
      "inputs": [
        {
          "internalType": "bytes32",
          "name": "role",
          "type": "bytes32"
        },
        {
          "internalType": "address",
          "name": "account",
          "type": "address"
        }
      ],
      "name": "revokeRole",
      "outputs": [],
      "stateMutability": "nonpayable",
      "type": "function"
    },
    {
      "inputs": [
        {
          "internalType": "address",
          "name": "from",
          "type": "address"
        },
        {
          "internalType": "address",
          "name": "to",
          "type": "address"
        },
        {
          "internalType": "uint256[]",
          "name": "ids",
          "type": "uint256[]"
        },
        {
          "internalType": "uint256[]",
          "name": "amounts",
          "type": "uint256[]"
        },
        {
          "internalType": "bytes",
          "name": "data",
          "type": "bytes"
        }
      ],
      "name": "safeBatchTransferFrom",
      "outputs": [],
      "stateMutability": "nonpayable",
      "type": "function"
    },
    {
      "inputs": [
        {
          "internalType": "address",
          "name": "from",
          "type": "address"
        },
        {
          "internalType": "address",
          "name": "to",
          "type": "address"
        },
        {
          "internalType": "uint256",
          "name": "id",
          "type": "uint256"
        },
        {
          "internalType": "uint256",
          "name": "amount",
          "type": "uint256"
        },
        {
          "internalType": "bytes",
          "name": "data",
          "type": "bytes"
        }
      ],
      "name": "safeTransferFrom",
      "outputs": [],
      "stateMutability": "nonpayable",
      "type": "function"
    },
    {
      "inputs": [
        {
          "internalType": "address",
          "name": "operator",
          "type": "address"
        },
        {
          "internalType": "bool",
          "name": "approved",
          "type": "bool"
        }
      ],
      "name": "setApprovalForAll",
      "outputs": [],
      "stateMutability": "nonpayable",
      "type": "function"
    },
    {
      "inputs": [
        {
          "internalType": "uint256",
          "name": "tokenId",
          "type": "uint256"
        },
        {
          "internalType": "uint256",
          "name": "salePrice",
          "type": "uint256"
        }
      ],
      "name": "setForSale",
      "outputs": [],
      "stateMutability": "nonpayable",
      "type": "function"
    },
    {
      "inputs": [
        {
          "internalType": "uint256",
          "name": "tokenId",
          "type": "uint256"
        },
        {
          "internalType": "uint256",
          "name": "reservePrice",
          "type": "uint256"
        }
      ],
      "name": "startAuction",
      "outputs": [],
      "stateMutability": "nonpayable",
      "type": "function"
    },
    {
      "inputs": [
        {
          "internalType": "bytes4",
          "name": "interfaceId",
          "type": "bytes4"
        }
      ],
      "name": "supportsInterface",
      "outputs": [
        {
          "internalType": "bool",
          "name": "",
          "type": "bool"
        }
      ],
      "stateMutability": "view",
      "type": "function"
    },
    {
      "inputs": [
        {
          "internalType": "uint256",
          "name": "",
          "type": "uint256"
        }
      ],
      "name": "totalAuctions",
      "outputs": [
        {
          "internalType": "uint256",
          "name": "",
          "type": "uint256"
        }
      ],
      "stateMutability": "view",
      "type": "function"
    },
    {
      "inputs": [
        {
          "internalType": "address",
          "name": "newOwner",
          "type": "address"
        }
      ],
      "name": "transferOwnership",
      "outputs": [],
      "stateMutability": "nonpayable",
      "type": "function"
    },
    {
      "inputs": [
        {
          "internalType": "uint256",
          "name": "",
          "type": "uint256"
        }
      ],
      "name": "uri",
      "outputs": [
        {
          "internalType": "string",
          "name": "",
          "type": "string"
        }
      ],
      "stateMutability": "view",
      "type": "function"
    },
    {
      "inputs": [
        {
          "internalType": "uint256",
          "name": "tokenId",
          "type": "uint256"
        }
      ],
      "name": "withdrawBidMoney",
      "outputs": [],
      "stateMutability": "nonpayable",
      "type": "function"
    }
  ],
  "bytecode": "0x60806040526002600855600260095562015180600a553480156200002257600080fd5b5060405162003f4238038062003f42833981016040819052620000459162000193565b83620000518162000082565b506200005d336200009b565b600780546001600160a01b03191633179055600892909255600955600a5550620002d8565b805162000097906002906020840190620000ed565b5050565b600380546001600160a01b038381166001600160a01b0319831681179093556040519116919082907f8be0079c531659141344cd1fd0a4f28419497f9722a3daafe3b4186f6b6457e090600090a35050565b828054620000fb9062000285565b90600052602060002090601f0160209004810192826200011f57600085556200016a565b82601f106200013a57805160ff19168380011785556200016a565b828001600101855582156200016a579182015b828111156200016a5782518255916020019190600101906200014d565b50620001789291506200017c565b5090565b5b808211156200017857600081556001016200017d565b60008060008060808587031215620001a9578384fd5b84516001600160401b0380821115620001c0578586fd5b818701915087601f830112620001d4578586fd5b815181811115620001e957620001e9620002c2565b604051601f8201601f19908116603f01168101908382118183101715620002145762000214620002c2565b81604052828152602093508a8484870101111562000230578889fd5b8891505b8282101562000253578482018401518183018501529083019062000234565b828211156200026457888484830101525b9289015160408a01516060909a0151939b909a509297509195505050505050565b600181811c908216806200029a57607f821691505b60208210811415620002bc57634e487b7160e01b600052602260045260246000fd5b50919050565b634e487b7160e01b600052604160045260246000fd5b613c5a80620002e86000396000f3fe6080604052600436106101ed5760003560e01c8063705ede3c1161010d578063a217fddf116100a0578063d96a094a1161006f578063d96a094a14610640578063e57a104a14610653578063e985e9c5146106dc578063f242432a14610725578063f2fde38b1461074057600080fd5b8063a217fddf146105cb578063a22cb465146105e0578063b9a2de3a14610600578063d547741f1461062057600080fd5b8063889c6116116100dc578063889c6116146105405780638da5cb5b1461057057806391d14854146105985780639979ef45146105b857600080fd5b8063705ede3c1461046c578063715018a61461048c57806371fc8841146104a15780637b3c4baa146104c157600080fd5b80632eb2c2d6116101855780634e1273f4116101545780634e1273f4146103c15780634fee13fc146103ee57806359424b781461040e578063634795701461042e57600080fd5b80632eb2c2d6146103345780632f2ff15d1461035457806336568abe14610374578063377434901461039457600080fd5b806317fcfe22116101c157806317fcfe22146102a45780631dabf849146102c4578063248a9ca3146102e4578063261b6f081461031457600080fd5b8062fdd58e146101f257806301ffc9a7146102255780630e89341c14610255578063173417b114610282575b600080fd5b3480156101fe57600080fd5b5061021261020d366004613357565b610760565b6040519081526020015b60405180910390f35b34801561023157600080fd5b50610245610240366004613562565b6107f7565b604051901515815260200161021c565b34801561026157600080fd5b50610275610270366004613526565b610808565b60405161021c919061384f565b34801561028e57600080fd5b506102a261029d366004613526565b61089c565b005b3480156102b057600080fd5b506102a26102bf36600461359a565b610c7b565b3480156102d057600080fd5b506102a26102df366004613452565b610e19565b3480156102f057600080fd5b506102126102ff366004613526565b60009081526005602052604090206001015490565b34801561032057600080fd5b506102a261032f3660046133b6565b6111c1565b34801561034057600080fd5b506102a261034f366004613215565b61129c565b34801561036057600080fd5b506102a261036f36600461353e565b6112cd565b34801561038057600080fd5b506102a261038f36600461353e565b6112f8565b3480156103a057600080fd5b506102126103af366004613526565b600e6020526000908152604090205481565b3480156103cd57600080fd5b506103e16103dc3660046133f1565b611376565b60405161021c91906137f0565b3480156103fa57600080fd5b506102a261040936600461359a565b6114d8565b34801561041a57600080fd5b506102a26104293660046131c1565b611654565b34801561043a57600080fd5b50610212610449366004613382565b600d60209081526000938452604080852082529284528284209052825290205481565b34801561047857600080fd5b506102a26104873660046133b6565b6116d2565b34801561049857600080fd5b506102a26117a2565b3480156104ad57600080fd5b506102a26104bc3660046131c1565b6117d8565b3480156104cd57600080fd5b506105186104dc36600461359a565b600c602090815260009283526040808420909152908252902080546001820154600283015460039093015491926001600160a01b039091169184565b604080519485526001600160a01b03909316602085015291830152606082015260800161021c565b34801561054c57600080fd5b5061024561055b3660046131c1565b60046020526000908152604090205460ff1681565b34801561057c57600080fd5b506003546040516001600160a01b03909116815260200161021c565b3480156105a457600080fd5b506102456105b336600461353e565b611853565b6102a26105c6366004613526565b61187e565b3480156105d757600080fd5b50610212600081565b3480156105ec57600080fd5b506102a26105fb366004613326565b611cfd565b34801561060c57600080fd5b506102a261061b366004613526565b611dd4565b34801561062c57600080fd5b506102a261063b36600461353e565b6120b6565b6102a261064e366004613526565b6120dc565b34801561065f57600080fd5b506106cc61066e366004613526565b600b602090815260009182526040918290208054600382015484516060810186526004840154815260059093015460ff8181169585019590955261010090819004851695840195909552928116936001600160a01b03910416919084565b60405161021c9493929190613803565b3480156106e857600080fd5b506102456106f73660046131dd565b6001600160a01b03918216600090815260016020908152604080832093909416825291909152205460ff1690565b34801561073157600080fd5b506102a261034f3660046132bf565b34801561074c57600080fd5b506102a261075b3660046131c1565b6122af565b60006001600160a01b0383166107d15760405162461bcd60e51b815260206004820152602b60248201527f455243313135353a2062616c616e636520717565727920666f7220746865207a60448201526a65726f206164647265737360a81b60648201526084015b60405180910390fd5b506000908152602081815260408083206001600160a01b03949094168352929052205490565b60006108028261234a565b92915050565b60606002805461081790613aa8565b80601f016020809104026020016040519081016040528092919081815260200182805461084390613aa8565b80156108905780601f1061086557610100808354040283529160200191610890565b820191906000526020600020905b81548152906001019060200180831161087357829003601f168201915b50505050509050919050565b6000818152600e60205260409020548061090b5760405162461bcd60e51b815260206004820152602a60248201527f6e6f2070726576696f75732061756374696f6e732068617070656e656420666f6044820152691c881d1a1a5cc813919560b21b60648201526084016107c8565b80600114158061094c575060026000838152600b602052604090205460ff16600281111561094957634e487b7160e01b600052602160045260246000fd5b14155b8061097157506000828152600c60209081526040808320848452909152902060020154155b6109bd5760405162461bcd60e51b815260206004820152601e60248201527f46697273742061756374696f6e206973207374696c6c206f6e676f696e67000060448201526064016107c8565b600060026000848152600b602052604090205460ff1660028111156109f257634e487b7160e01b600052602160045260246000fd5b148015610a1957506000838152600c60209081526040808320858452909152902060020154155b8015610a4a57506000838152600c602090815260408083208584529091529020600101546001600160a01b03163314155b15610a5d57610a5a83833361236f565b90505b60026000848152600b602052604090205460ff166002811115610a9057634e487b7160e01b600052602160045260246000fd5b148015610ab857506000838152600c6020908152604080832085845290915290206002015415155b15610b6657610ad283610acc600185613a4e565b3361236f565b336000908152600d602090815260408083208784528252808320868452909152902054909150801580610b055750600082115b610b645760405162461bcd60e51b815260206004820152602a60248201527f43616e2774207769746864726177206d6f6e65792066726f6d206f6e20676f6960448201526937339030bab1ba34b7b760b11b60648201526084016107c8565b505b60026000848152600b602052604090205460ff166002811115610b9957634e487b7160e01b600052602160045260246000fd5b14610bac57610ba983833361236f565b90505b60008111610c0f5760405162461bcd60e51b815260206004820152602a60248201527f796f7520646f6e74206861766520616e79206d6f6e657920696e2074686520626044820152691a591a5b99c81c1bdbdb60b21b60648201526084016107c8565b604051339082156108fc029083906000818181858888f19350505050158015610c3c573d6000803e3d6000fd5b5060408051338152602081018390527f9fe2db218b58c00ab3556f2be44b2769b37978368c63313d82d78306568e4776910160405180910390a1505050565b6000828152600b6020526040902054829061010090046001600160a01b03163314610cb85760405162461bcd60e51b81526004016107c8906138a6565b8260016000828152600b602052604090205460ff166002811115610cec57634e487b7160e01b600052602160045260246000fd5b1415610d0a5760405162461bcd60e51b81526004016107c890613926565b8360026000828152600b602052604090205460ff166002811115610d3e57634e487b7160e01b600052602160045260246000fd5b1415610d5c5760405162461bcd60e51b81526004016107c890613992565b60008411610db85760405162461bcd60e51b815260206004820152602360248201527f53616c652070726963652073686f756c6420626520677265617465722074686160448201526206e20360ec1b60648201526084016107c8565b6000858152600b6020908152604091829020805460ff1916600117815560030186905581518781529081018690527f7752f985370f9475f09c7dc0523f4e9e8ace8514776ca241f4ddede3d7d7981f91015b60405180910390a15050505050565b3360009081526004602052604090205460ff16610e845760405162461bcd60e51b8152602060048201526024808201527f796f7520617265206e6f7420617574686f72697a656420746f206372656174656044820152630813919560e21b60648201526084016107c8565b8751895114610ee35760405162461bcd60e51b815260206004820152602560248201527f616c6c2063726561746f7273206d757374206861766520736861726573206465604482015264199a5b995960da1b60648201526084016107c8565b6000805b8951811015610f3757898181518110610f1057634e487b7160e01b600052603260045260246000fd5b602002602001015182610f2391906139f7565b915080610f2f81613b10565b915050610ee7565b5080606414610fa15760405162461bcd60e51b815260206004820152603060248201527f616363756d756c617465642073686172652073686f756c64206265206571756160448201526f1b081d1bc80c4c0c081c195c98d95b9d60821b60648201526084016107c8565b6040805160c081019091528060008152602001336001600160a01b031681526020018b81526020018a815260200187815260200160405180606001604052808781526020018660ff1681526020018560ff16815250815250600b600060066000815461100c90613b10565b91829055508152602081019190915260400160002081518154829060ff1916600183600281111561104d57634e487b7160e01b600052602160045260246000fd5b021790555060208281015182546001600160a01b0390911661010002610100600160a81b0319909116178255604083015180516110909260018501920190612f24565b50606082015180516110ac916002840191602090910190612f89565b506080820151600382015560a0909101518051600483015560208101516005909201805460409092015160ff9081166101000261ffff1990931693169290921717905560065461110090339060018a6123fb565b87600281111561112057634e487b7160e01b600052602160045260246000fd5b60ff16600114156111375761113760065487610c7b565b87600281111561115757634e487b7160e01b600052602160045260246000fd5b60ff166002141561116e5761116e600654866114d8565b7f565a38a133154a95992e1a08d307cb27c5f9fefbb6bd175c7e7570373979f978336006548c8c8c8989896040516111ad9897969594939291906136fd565b60405180910390a150505050505050505050565b6003546001600160a01b031633146111eb5760405162461bcd60e51b81526004016107c89061395d565b60005b81518110156112615760006004600084848151811061121d57634e487b7160e01b600052603260045260246000fd5b6020908102919091018101516001600160a01b03168252810191909152604001600020805460ff19169115159190911790558061125981613b10565b9150506111ee565b507f2562d5bb4eb1b6b4d2c161edf2d21dded6c582bd1e60b5a7e14c3fa71f18c0708160405161129191906137a3565b60405180910390a150565b6003546001600160a01b031633146112c65760405162461bcd60e51b81526004016107c89061395d565b5050505050565b6000828152600560205260409020600101546112e98133612505565b6112f38383612569565b505050565b6001600160a01b03811633146113685760405162461bcd60e51b815260206004820152602f60248201527f416363657373436f6e74726f6c3a2063616e206f6e6c792072656e6f756e636560448201526e103937b632b9903337b91039b2b63360891b60648201526084016107c8565b61137282826125ef565b5050565b606081518351146113db5760405162461bcd60e51b815260206004820152602960248201527f455243313135353a206163636f756e747320616e6420696473206c656e677468604482015268040dad2e6dac2e8c6d60bb1b60648201526084016107c8565b6000835167ffffffffffffffff81111561140557634e487b7160e01b600052604160045260246000fd5b60405190808252806020026020018201604052801561142e578160200160208202803683370190505b50905060005b84518110156114d05761149585828151811061146057634e487b7160e01b600052603260045260246000fd5b602002602001015185838151811061148857634e487b7160e01b600052603260045260246000fd5b6020026020010151610760565b8282815181106114b557634e487b7160e01b600052603260045260246000fd5b60209081029190910101526114c981613b10565b9050611434565b509392505050565b6000828152600b6020526040902054829061010090046001600160a01b031633146115155760405162461bcd60e51b81526004016107c8906138a6565b8260026000828152600b602052604090205460ff16600281111561154957634e487b7160e01b600052602160045260246000fd5b14156115675760405162461bcd60e51b81526004016107c890613992565b8360016000828152600b602052604090205460ff16600281111561159b57634e487b7160e01b600052602160045260246000fd5b14156115b95760405162461bcd60e51b81526004016107c890613926565b6000858152600e60205260408120805482906115d490613b10565b91829055506000878152600b60209081526040808320805460ff19166002179055600c825280832084845282529182902060030188905581518981529081018390529081018790529091507f0114aab713235b737f82de882833e128d244e12c1b0967b9c49748c123a6f4b19060600160405180910390a1505050505050565b6003546001600160a01b0316331461167e5760405162461bcd60e51b81526004016107c89061395d565b6001600160a01b038116600081815260046020908152604091829020805460ff1916600117905590519182527f7a6f91276a418f3cf3b4fc9df1f37747fc8c9e84d25f644b22de8eae751f8d959101611291565b6003546001600160a01b031633146116fc5760405162461bcd60e51b81526004016107c89061395d565b60005b81518110156117725760016004600084848151811061172e57634e487b7160e01b600052603260045260246000fd5b6020908102919091018101516001600160a01b03168252810191909152604001600020805460ff19169115159190911790558061176a81613b10565b9150506116ff565b507f6c86e6599f381ea3fcef040370b6f0672314c7efbb1cdccc5f96bef495c9e3268160405161129191906137a3565b6003546001600160a01b031633146117cc5760405162461bcd60e51b81526004016107c89061395d565b6117d66000612656565b565b6003546001600160a01b031633146118025760405162461bcd60e51b81526004016107c89061395d565b6001600160a01b038116600081815260046020908152604091829020805460ff1916905590519182527f23d4d09651cfe4afd3afd9707a61b7f002f740560b25a740920231acc4b1eaaf9101611291565b60009182526005602090815260408084206001600160a01b0393909316845291905290205460ff1690565b80600080828152600b602052604090205460ff1660028111156118b157634e487b7160e01b600052602160045260246000fd5b14156118cf5760405162461bcd60e51b81526004016107c8906138db565b6000828152600b6020526040902054829061010090046001600160a01b031633141561190d5760405162461bcd60e51b81526004016107c890613862565b8260016000828152600b602052604090205460ff16600281111561194157634e487b7160e01b600052602160045260246000fd5b141561195f5760405162461bcd60e51b81526004016107c890613926565b600034116119be5760405162461bcd60e51b815260206004820152602660248201527f62696420616d6f756e742073686f756c642062652067726561746572207468616044820152656e207a65726f60d01b60648201526084016107c8565b6000848152600e6020908152604080832054338452600d835281842088855283528184208185529092528220549091906119f890346139f7565b6000878152600c6020908152604080832086845290915290206003015490915015801590611a4057506000868152600c60209081526040808320858452909152902060020154155b15611a7057600a54611a5290426139f7565b6000878152600c602090815260408083208684529091529020600201555b6000868152600c60209081526040808320858452909152902060020154801580611a9957508042105b15611c6d576000878152600c6020908152604080832086845290915290206003015415801590611ae057506000878152600c60209081526040808320868452909152902054155b15611b7c576000878152600c60209081526040808320868452909152902060030154821015611b775760405162461bcd60e51b815260206004820152603b60248201527f62696420616d6f756e742073686f756c642062652067726561746572206f722060448201527f657175616c20746f20746865207265736572766564207072696365000000000060648201526084016107c8565b611c02565b6000878152600c602090815260408083208684529091529020548211611c025760405162461bcd60e51b815260206004820152603560248201527f62696420616d6f756e742073686f756c642062652067726561746572207468616044820152741b881d1a194818dd5c9c995b9d081a1a59da195cdd605a1b60648201526084016107c8565b336000908152600d602090815260408083208a8452825280832086845290915281208054349290611c349084906139f7565b90915550506000878152600c60209081526040808320868452909152902082815560010180546001600160a01b03191633179055611cb5565b60405162461bcd60e51b815260206004820152601e60248201527f61756374696f6e20697320636c6f73656420666f722074686973204e4654000060448201526064016107c8565b6040805133815260208101899052348183015290517f87f5b2fe112bf269d30fb8ca9dc0bde0afd0cc39258e13fafd75fe794795bf0e9181900360600190a150505050505050565b336001600160a01b0383161415611d685760405162461bcd60e51b815260206004820152602960248201527f455243313135353a2073657474696e6720617070726f76616c20737461747573604482015268103337b91039b2b63360b91b60648201526084016107c8565b3360008181526001602090815260408083206001600160a01b03871680855290835292819020805460ff191686151590811790915590519081529192917f17307eab39ab6107e8899845ad3d59bd9653f200f220920489ca2b5937696c31910160405180910390a35050565b6000818152600b6020526040902054819061010090046001600160a01b03163314611e115760405162461bcd60e51b81526004016107c8906138a6565b81600080828152600b602052604090205460ff166002811115611e4457634e487b7160e01b600052602160045260246000fd5b1415611e625760405162461bcd60e51b81526004016107c8906138db565b8260016000828152600b602052604090205460ff166002811115611e9657634e487b7160e01b600052602160045260246000fd5b1415611eb45760405162461bcd60e51b81526004016107c890613926565b6000848152600e6020908152604080832054600b8352818420805460ff19169055600c83528184208185529092529091205415612047576000858152600b602090815260408083208054600c8452828520868652909352922060018101546001600160a01b03908116610100908102610100600160a81b0319851617909455600290910154929091041690606090611f8c576000878152600c602090815260408083208684529091529020600190810154611f7d9184916001600160a01b0316908a90856126a8565b611f878783612846565b612044565b6000878152600c6020908152604080832086845290915290206002015442116120035760405162461bcd60e51b8152602060048201526024808201527f63616e607420656e64206f6e676f696e672074696d65206261736564206175636044820152633a34b7b760e11b60648201526084016107c8565b6000878152600c60209081526040808320868452909152902060019081015461203a9184916001600160a01b0316908a90856126a8565b6120448783612846565b50505b6000858152600c602090815260408083208484528252918290206001810154905483518981529283018590526001600160a01b039091169282019290925260608101919091527eb49753920e35e36dba724b8bc7a555d1d4cf6a0e6460ee871751325beae12c90608001610e0a565b6000828152600560205260409020600101546120d28133612505565b6112f383836125ef565b6000818152600b6020526040902054819061010090046001600160a01b031633141561211a5760405162461bcd60e51b81526004016107c890613862565b81600080828152600b602052604090205460ff16600281111561214d57634e487b7160e01b600052602160045260246000fd5b141561216b5760405162461bcd60e51b81526004016107c8906138db565b8260026000828152600b602052604090205460ff16600281111561219f57634e487b7160e01b600052602160045260246000fd5b14156121bd5760405162461bcd60e51b81526004016107c890613992565b6000848152600b602052604090206003015434146122155760405162461bcd60e51b81526020600482015260156024820152741a5b98dbdc9c9958dd08185b5bdd5b9d081cd95b9d605a1b60448201526064016107c8565b6000848152600b6020908152604080832080546001600160a81b031981166101003381810260ff19169290921790935583519485019093529383529092046001600160a01b03169161226e9183919088906001906126a8565b612279858234612922565b60408051338152602081018790527f55c18555197c6574627cf460c66073d10aa05d412468800b7b71feeaf82ea92d9101610e0a565b6003546001600160a01b031633146122d95760405162461bcd60e51b81526004016107c89061395d565b6001600160a01b03811661233e5760405162461bcd60e51b815260206004820152602660248201527f4f776e61626c653a206e6577206f776e657220697320746865207a65726f206160448201526564647265737360d01b60648201526084016107c8565b61234781612656565b50565b60006001600160e01b03198216637965db0b60e01b1480610802575061080282612ae6565b60008060015b8481116123f2576001600160a01b0384166000908152600d6020908152604080832089845282528083208484529091529020546123b290836139f7565b6001600160a01b0385166000908152600d602090815260408083208a845282528083208584529091528120559150806123ea81613b10565b915050612375565b50949350505050565b6001600160a01b03841661245b5760405162461bcd60e51b815260206004820152602160248201527f455243313135353a206d696e7420746f20746865207a65726f206164647265736044820152607360f81b60648201526084016107c8565b336124758160008761246c88612b36565b6112c688612b36565b6000848152602081815260408083206001600160a01b0389168452909152812080548592906124a59084906139f7565b909155505060408051858152602081018590526001600160a01b0380881692600092918516917fc3d58168c5ae7397731d063d5bbf3d657854427343f4c083240f7aacaa2d0f62910160405180910390a46112c681600087878787612b8f565b61250f8282611853565b61137257612527816001600160a01b03166014612d3b565b612532836020612d3b565b604051602001612543929190613643565b60408051601f198184030181529082905262461bcd60e51b82526107c89160040161384f565b6125738282611853565b6113725760008281526005602090815260408083206001600160a01b03851684529091529020805460ff191660011790556125ab3390565b6001600160a01b0316816001600160a01b0316837f2f8788117e7eff1d82e926ec794901d17c78024a50270940304540a733656f0d60405160405180910390a45050565b6125f98282611853565b156113725760008281526005602090815260408083206001600160a01b0385168085529252808320805460ff1916905551339285917ff6391f5c32d9c69d2a47ea670b442974b53935d1edc7fd64eb21e047a839171b9190a45050565b600380546001600160a01b038381166001600160a01b0319831681179093556040519116919082907f8be0079c531659141344cd1fd0a4f28419497f9722a3daafe3b4186f6b6457e090600090a35050565b6001600160a01b03841661270c5760405162461bcd60e51b815260206004820152602560248201527f455243313135353a207472616e7366657220746f20746865207a65726f206164604482015264647265737360d81b60648201526084016107c8565b3361271c81878761246c88612b36565b6000848152602081815260408083206001600160a01b038a168452909152902054838110156127a05760405162461bcd60e51b815260206004820152602a60248201527f455243313135353a20696e73756666696369656e742062616c616e636520666f60448201526939103a3930b739b332b960b11b60648201526084016107c8565b6000858152602081815260408083206001600160a01b038b81168552925280832087850390559088168252812080548692906127dd9084906139f7565b909155505060408051868152602081018690526001600160a01b03808916928a821692918616917fc3d58168c5ae7397731d063d5bbf3d657854427343f4c083240f7aacaa2d0f62910160405180910390a461283d828888888888612b8f565b50505050505050565b6000828152600e6020908152604080832054600c83528184208185528352818420600101546001600160a01b0316808552600d845282852087865284528285208286529093529220546128ce5760405162461bcd60e51b815260206004820152601060248201526f626964706f6f6c20697320656d70747960801b60448201526064016107c8565b6001600160a01b0381166000908152600d6020908152604080832087845282528083208584528252808320839055868352600c825280832085845290915290205461291c9085908590612922565b50505050565b60006064600954836129349190613a2f565b61293e9190613a0f565b905060006064600854846129529190613a2f565b61295c9190613a0f565b6007546040519192506001600160a01b03169082156108fc029083906000818181858888f19350505050158015612997573d6000803e3d6000fd5b5060005b6000868152600b6020526040902060010154811015612a93576000868152600b60205260408120600201805460649190849081106129e957634e487b7160e01b600052603260045260246000fd5b9060005260206000200154856129ff9190613a2f565b612a099190613a0f565b6000888152600b6020526040902060010180549192509083908110612a3e57634e487b7160e01b600052603260045260246000fd5b60009182526020822001546040516001600160a01b039091169183156108fc02918491818181858888f19350505050158015612a7e573d6000803e3d6000fd5b50508080612a8b90613b10565b91505061299b565b506001600160a01b0384166108fc82612aac8587613a4e565b612ab69190613a4e565b6040518115909202916000818181858888f19350505050158015612ade573d6000803e3d6000fd5b505050505050565b60006001600160e01b03198216636cdb3d1360e11b1480612b1757506001600160e01b031982166303a24d0760e21b145b8061080257506301ffc9a760e01b6001600160e01b0319831614610802565b60408051600180825281830190925260609160009190602080830190803683370190505090508281600081518110612b7e57634e487b7160e01b600052603260045260246000fd5b602090810291909101015292915050565b6001600160a01b0384163b15612ade5760405163f23a6e6160e01b81526001600160a01b0385169063f23a6e6190612bd390899089908890889088906004016136b8565b602060405180830381600087803b158015612bed57600080fd5b505af1925050508015612c1d575060408051601f3d908101601f19168201909252612c1a9181019061357e565b60015b612cca57612c29613b57565b806308c379a01415612c635750612c3e613b6f565b80612c495750612c65565b8060405162461bcd60e51b81526004016107c8919061384f565b505b60405162461bcd60e51b815260206004820152603460248201527f455243313135353a207472616e7366657220746f206e6f6e20455243313135356044820152732932b1b2b4bb32b91034b6b83632b6b2b73a32b960611b60648201526084016107c8565b6001600160e01b0319811663f23a6e6160e01b1461283d5760405162461bcd60e51b815260206004820152602860248201527f455243313135353a204552433131353552656365697665722072656a656374656044820152676420746f6b656e7360c01b60648201526084016107c8565b60606000612d4a836002613a2f565b612d559060026139f7565b67ffffffffffffffff811115612d7b57634e487b7160e01b600052604160045260246000fd5b6040519080825280601f01601f191660200182016040528015612da5576020820181803683370190505b509050600360fc1b81600081518110612dce57634e487b7160e01b600052603260045260246000fd5b60200101906001600160f81b031916908160001a905350600f60fb1b81600181518110612e0b57634e487b7160e01b600052603260045260246000fd5b60200101906001600160f81b031916908160001a9053506000612e2f846002613a2f565b612e3a9060016139f7565b90505b6001811115612ece576f181899199a1a9b1b9c1cb0b131b232b360811b85600f1660108110612e7c57634e487b7160e01b600052603260045260246000fd5b1a60f81b828281518110612ea057634e487b7160e01b600052603260045260246000fd5b60200101906001600160f81b031916908160001a90535060049490941c93612ec781613a91565b9050612e3d565b508315612f1d5760405162461bcd60e51b815260206004820181905260248201527f537472696e67733a20686578206c656e67746820696e73756666696369656e7460448201526064016107c8565b9392505050565b828054828255906000526020600020908101928215612f79579160200282015b82811115612f7957825182546001600160a01b0319166001600160a01b03909116178255602090920191600190910190612f44565b50612f85929150612fc4565b5090565b828054828255906000526020600020908101928215612f79579160200282015b82811115612f79578251825591602001919060010190612fa9565b5b80821115612f855760008155600101612fc5565b600082601f830112612fe9578081fd5b81356020612ff6826139d3565b6040516130038282613ae3565b8381528281019150858301600585901b87018401881015613022578586fd5b855b8581101561304957813561303781613bf9565b84529284019290840190600101613024565b5090979650505050505050565b600082601f830112613066578081fd5b81356020613073826139d3565b6040516130808282613ae3565b8381528281019150858301600585901b8701840188101561309f578586fd5b855b858110156130495781356130b481613bf9565b845292840192908401906001016130a1565b600082601f8301126130d6578081fd5b813560206130e3826139d3565b6040516130f08282613ae3565b8381528281019150858301600585901b8701840188101561310f578586fd5b855b8581101561304957813584529284019290840190600101613111565b600082601f83011261313d578081fd5b813567ffffffffffffffff81111561315757613157613b41565b60405161316e601f8301601f191660200182613ae3565b818152846020838601011115613182578283fd5b816020850160208301379081016020019190915292915050565b8035600381106131ab57600080fd5b919050565b803560ff811681146131ab57600080fd5b6000602082840312156131d2578081fd5b8135612f1d81613bf9565b600080604083850312156131ef578081fd5b82356131fa81613bf9565b9150602083013561320a81613bf9565b809150509250929050565b600080600080600060a0868803121561322c578081fd5b853561323781613bf9565b9450602086013561324781613bf9565b9350604086013567ffffffffffffffff80821115613263578283fd5b61326f89838a016130c6565b94506060880135915080821115613284578283fd5b61329089838a016130c6565b935060808801359150808211156132a5578283fd5b506132b28882890161312d565b9150509295509295909350565b600080600080600060a086880312156132d6578081fd5b85356132e181613bf9565b945060208601356132f181613bf9565b93506040860135925060608601359150608086013567ffffffffffffffff81111561331a578182fd5b6132b28882890161312d565b60008060408385031215613338578182fd5b823561334381613bf9565b91506020830135801515811461320a578182fd5b60008060408385031215613369578081fd5b823561337481613bf9565b946020939093013593505050565b600080600060608486031215613396578081fd5b83356133a181613bf9565b95602085013595506040909401359392505050565b6000602082840312156133c7578081fd5b813567ffffffffffffffff8111156133dd578182fd5b6133e984828501612fd9565b949350505050565b60008060408385031215613403578182fd5b823567ffffffffffffffff8082111561341a578384fd5b61342686838701612fd9565b9350602085013591508082111561343b578283fd5b50613448858286016130c6565b9150509250929050565b60008060008060008060008060006101208a8c031215613470578687fd5b893567ffffffffffffffff80821115613487578889fd5b6134938d838e01613056565b9a5060208c01359150808211156134a8578889fd5b6134b48d838e016130c6565b99506134c260408d0161319c565b985060608c01359150808211156134d7578586fd5b506134e48c828d0161312d565b96505060808a0135945060a08a0135935060c08a0135925061350860e08b016131b0565b91506135176101008b016131b0565b90509295985092959850929598565b600060208284031215613537578081fd5b5035919050565b60008060408385031215613550578182fd5b82359150602083013561320a81613bf9565b600060208284031215613573578081fd5b8135612f1d81613c0e565b60006020828403121561358f578081fd5b8151612f1d81613c0e565b600080604083850312156135ac578182fd5b50508035926020909101359150565b6000815180845260208085019450808401835b838110156135ea578151875295820195908201906001016135ce565b509495945050505050565b6000815180845261360d816020860160208601613a65565b601f01601f19169290920160200192915050565b6003811061363f57634e487b7160e01b600052602160045260246000fd5b9052565b7f416363657373436f6e74726f6c3a206163636f756e742000000000000000000081526000835161367b816017850160208801613a65565b7001034b99036b4b9b9b4b733903937b6329607d1b60179184019182015283516136ac816028840160208801613a65565b01602801949350505050565b6001600160a01b03868116825285166020820152604081018490526060810183905260a0608082018190526000906136f2908301846135f5565b979650505050505050565b6001600160a01b03898116825260208083018a90526101006040840181905289519084018190526000926101208501928b810192855b81811015613751578451841686529482019493820193600101613733565b5050505050828103606084015261376881896135bb565b9150506137786080830187613621565b8460a083015261378d60c083018560ff169052565b60ff831660e08301529998505050505050505050565b6020808252825182820181905260009190848201906040850190845b818110156137e45783516001600160a01b0316835292840192918401916001016137bf565b50909695505050505050565b602081526000612f1d60208301846135bb565b60c081016138118287613621565b60018060a01b03851660208301528360408301528251606083015260ff602084015116608083015260ff60408401511660a083015295945050505050565b602081526000612f1d60208301846135f5565b60208082526024908201527f796f752063616e277420626964206f6e206f722062757920796f7572206f776e6040820152630813919560e21b606082015260800190565b6020808252818101527f796f7520617265206e6f7420746865206f776e6572206f662074686520617274604082015260600190565b6020808252602b908201527f74686520617274206973206e6f7420617661696c626c6520666f722073616c6560408201526a1037b91030bab1ba34b7b760a91b606082015260800190565b6020808252601e908201527f7468652061727420697320616c726561647920757020666f722073616c650000604082015260600190565b6020808252818101527f4f776e61626c653a2063616c6c6572206973206e6f7420746865206f776e6572604082015260600190565b60208082526021908201527f7468652061727420697320616c726561647920757020666f722061756374696f6040820152603760f91b606082015260800190565b600067ffffffffffffffff8211156139ed576139ed613b41565b5060051b60200190565b60008219821115613a0a57613a0a613b2b565b500190565b600082613a2a57634e487b7160e01b81526012600452602481fd5b500490565b6000816000190483118215151615613a4957613a49613b2b565b500290565b600082821015613a6057613a60613b2b565b500390565b60005b83811015613a80578181015183820152602001613a68565b8381111561291c5750506000910152565b600081613aa057613aa0613b2b565b506000190190565b600181811c90821680613abc57607f821691505b60208210811415613add57634e487b7160e01b600052602260045260246000fd5b50919050565b601f8201601f1916810167ffffffffffffffff81118282101715613b0957613b09613b41565b6040525050565b6000600019821415613b2457613b24613b2b565b5060010190565b634e487b7160e01b600052601160045260246000fd5b634e487b7160e01b600052604160045260246000fd5b600060033d1115613b6c57600481823e5160e01c5b90565b600060443d1015613b7d5790565b6040516003193d81016004833e81513d67ffffffffffffffff8160248401118184111715613bad57505050505090565b8285019150815181811115613bc55750505050505090565b843d8701016020828501011115613bdf5750505050505090565b613bee60208286010187613ae3565b509095945050505050565b6001600160a01b038116811461234757600080fd5b6001600160e01b03198116811461234757600080fdfea264697066735822122099ea108f777466d1bea77e3379de23c8ec1b278771d7bd188275090b7596dc8a64736f6c63430008040033",
  "linkReferences": {},
  "deployedLinkReferences": {}
}